{
  "transactions": [
    {
      "hash": "0x46365e6a5e7f79b6a8dbac8acabd6b322df27b72f517ceafc8a2b47c8bc67b67",
      "transactionType": "CALL",
      "contractName": null,
      "contractAddress": "0x00b036b58a818b1bc34d502d3fe730db729e62ac",
      "function": "initialize((address,address,uint24,int24,address),uint160)",
      "arguments": [
        "(0x0000000000000000000000000000000000000001, 0x1c7D4B196Cb0C7B01d743Fbc6116a902379C7238, 8388608, 60, 0x573b38C718Be16c1295F86229a9E9f015821E080)",
        "79228162514264337593543950336"
      ],
      "transaction": {
        "from": "0x43bca2d4f5398117c3516499609c6e11909d90e9",
        "to": "0x00b036b58a818b1bc34d502d3fe730db729e62ac",
        "gas": "0x1b256",
        "value": "0x0",
        "input": "0x6276cbbe00000000000000000000000000000000000000000000000000000000000000010000000000000000000000001c7d4b196cb0c7b01d743fbc6116a902379c72380000000000000000000000000000000000000000000000000000000000800000000000000000000000000000000000000000000000000000000000000000003c000000000000000000000000573b38c718be16c1295f86229a9e9f015821e0800000000000000000000000000000000000000001000000000000000000000000",
        "nonce": "0x4",
        "chainId": "0x515"
      },
      "additionalContracts": [],
      "isFixedGasLimit": false
    }
  ],
  "receipts": [
    {
      "status": "0x1",
      "cumulativeGasUsed": "0x3b4b4",
      "logs": [
        {
          "address": "0x00b036b58a818b1bc34d502d3fe730db729e62ac",
          "topics": [
            "0xdd466e674ea557f56295e2d0218a125ea4b4f0f6f3307b95f85e6110838d6438",
            "0x0715da4cea9b30933283e0d98505ef8697885b70ea295eceeb7b33c7bb4ae170",
            "0x0000000000000000000000000000000000000000000000000000000000000001",
            "0x0000000000000000000000001c7d4b196cb0c7b01d743fbc6116a902379c7238"
          ],
          "data": "0x0000000000000000000000000000000000000000000000000000000000800000000000000000000000000000000000000000000000000000000000000000003c000000000000000000000000573b38c718be16c1295f86229a9e9f015821e08000000000000000000000000000000000000000010000000000000000000000000000000000000000000000000000000000000000000000000000000000000000",
          "blockHash": "0x366cd3c89efd08a46b43b823903d85375684f9eef23a1a906cd5ff8681507006",
          "blockNumber": "0x33d60b9",
          "blockTimestamp": "0x6a2b0e05",
          "transactionHash": "0x46365e6a5e7f79b6a8dbac8acabd6b322df27b72f517ceafc8a2b47c8bc67b67",
          "transactionIndex": "0x3",
          "logIndex": "0x1",
          "removed": false
        }
      ],
      "logsBloom": "0x00000000000000000000000000000000000000000000000000000000000000000000000000000000000000000000000000000000000004000000000000040000100000000000000000000000000000000000000000040000000000000000000000000000000000000000000000000000000000000000000000000000000000000000000000000008000000800008000000000001000000000000000000200000000000000000000000000000000000000000008000000000000000000000000000000000000000000000000000000000000000000000000000000000000040000000000000000000000000000200000000080000000002000000000000000010",
      "type": "0x2",
      "transactionHash": "0x46365e6a5e7f79b6a8dbac8acabd6b322df27b72f517ceafc8a2b47c8bc67b67",
      "transactionIndex": "0x3",
      "blockHash": "0x366cd3c89efd08a46b43b823903d85375684f9eef23a1a906cd5ff8681507006",
      "blockNumber": "0x33d60b9",
      "gasUsed": "0x13a74",
      "effectiveGasPrice": "0x7a121",
      "blobGasUsed": "0xb860",
      "from": "0x43bca2d4f5398117c3516499609c6e11909d90e9",
      "to": "0x00b036b58a818b1bc34d502d3fe730db729e62ac",
      "contractAddress": null,
      "daFootprintGasScalar": "0x190",
      "l1BaseFeeScalar": "0x7d0",
      "l1BlobBaseFee": "0xaca927c",
      "l1BlobBaseFeeScalar": "0xdbba0",
      "l1Fee": "0x7254efe4f",
      "l1GasPrice": "0xb1735fef",
      "l1GasUsed": "0x76d"
    }
  ],
  "libraries": [],
  "pending": [],
  "returns": {},
  "timestamp": 1781206533529,
  "chain": 1301,
  "commit": "6d67e10"
}