{
  "transactions": [
    {
      "hash": "0x9a71d8f77e02bee8f89cacee695e52dbcbe969d9ea3a9ded196b2cf504b6e4e4",
      "transactionType": "CALL",
      "contractName": null,
      "contractAddress": "0x00b036b58a818b1bc34d502d3fe730db729e62ac",
      "function": "initialize((address,address,uint24,int24,address),uint160)",
      "arguments": [
        "(0x0000000000000000000000000000000000000001, 0x1c7D4B196Cb0C7B01d743Fbc6116a902379C7238, 8388608, 60, 0x5ce673E98b7E4f1dB9e73Dd3f385E81d0F22E080)",
        "79228162514264337593543950336"
      ],
      "transaction": {
        "from": "0x43bca2d4f5398117c3516499609c6e11909d90e9",
        "to": "0x00b036b58a818b1bc34d502d3fe730db729e62ac",
        "gas": "0x1b256",
        "value": "0x0",
        "input": "0x6276cbbe00000000000000000000000000000000000000000000000000000000000000010000000000000000000000001c7d4b196cb0c7b01d743fbc6116a902379c72380000000000000000000000000000000000000000000000000000000000800000000000000000000000000000000000000000000000000000000000000000003c0000000000000000000000005ce673e98b7e4f1db9e73dd3f385e81d0f22e0800000000000000000000000000000000000000001000000000000000000000000",
        "nonce": "0x9",
        "chainId": "0x515"
      },
      "additionalContracts": [],
      "isFixedGasLimit": false
    }
  ],
  "receipts": [
    {
      "status": "0x1",
      "cumulativeGasUsed": "0x69518",
      "logs": [
        {
          "address": "0x00b036b58a818b1bc34d502d3fe730db729e62ac",
          "topics": [
            "0xdd466e674ea557f56295e2d0218a125ea4b4f0f6f3307b95f85e6110838d6438",
            "0x97ff765b20b73df97c661ca8a3f0982d24c04e8827688e3605cecbc9f773678f",
            "0x0000000000000000000000000000000000000000000000000000000000000001",
            "0x0000000000000000000000001c7d4b196cb0c7b01d743fbc6116a902379c7238"
          ],
          "data": "0x0000000000000000000000000000000000000000000000000000000000800000000000000000000000000000000000000000000000000000000000000000003c0000000000000000000000005ce673e98b7e4f1db9e73dd3f385e81d0f22e08000000000000000000000000000000000000000010000000000000000000000000000000000000000000000000000000000000000000000000000000000000000",
          "blockHash": "0x3a0e166fbf44b3b5756b4b3c6dd3a851f9cd30aa875fbc1926625b721d81e86f",
          "blockNumber": "0x33d8f1c",
          "blockTimestamp": "0x6a2b3c68",
          "transactionHash": "0x9a71d8f77e02bee8f89cacee695e52dbcbe969d9ea3a9ded196b2cf504b6e4e4",
          "transactionIndex": "0x5",
          "logIndex": "0x3",
          "removed": false
        }
      ],
      "logsBloom": "0x00000000000000000000000000000000000000000000000000000000008000000000000000000000000000000000000000000000000004000000000000040000100000000000000000000000000000000000000000040000000000000000000000000000000000000000000000000000000000000000000000000000000000000000000000000008000000000018000008000001000000000000000000200000000000000000000000000000000000000000008000000000000000000000000000000000000000000000000000000000000000000000000000000000000040000000000000000000000000000000000000000000000002000000000000000010",
      "type": "0x2",
      "transactionHash": "0x9a71d8f77e02bee8f89cacee695e52dbcbe969d9ea3a9ded196b2cf504b6e4e4",
      "transactionIndex": "0x5",
      "blockHash": "0x3a0e166fbf44b3b5756b4b3c6dd3a851f9cd30aa875fbc1926625b721d81e86f",
      "blockNumber": "0x33d8f1c",
      "gasUsed": "0x13a74",
      "effectiveGasPrice": "0x7a121",
      "blobGasUsed": "0xb860",
      "from": "0x43bca2d4f5398117c3516499609c6e11909d90e9",
      "to": "0x00b036b58a818b1bc34d502d3fe730db729e62ac",
      "contractAddress": null,
      "daFootprintGasScalar": "0x190",
      "l1BaseFeeScalar": "0x7d0",
      "l1BlobBaseFee": "0x34c5e1e",
      "l1BlobBaseFeeScalar": "0xdbba0",
      "l1Fee": "0x2530a610b",
      "l1GasPrice": "0x3fae5faa",
      "l1GasUsed": "0x76d"
    }
  ],
  "libraries": [],
  "pending": [],
  "returns": {},
  "timestamp": 1781218408178,
  "chain": 1301,
  "commit": "6d67e10"
}